:020000040000FA
:020000001128C5
:08000800A800030E8301A9000A
:100010000B196E2010188E20290E8300A80E280EB2
:10002000090083160313003088000F308600C730A4
:100030008700833081000C1483120C309000FC3058
:100040008F0018308E000C100B118B160B178B17AE
:100050000130A200A401A001A1018601AE01861712
:10006000AF017330A300061C3D20861C4420061DF2
:100070004B20861D5220060833286520241CA00A28
:1000800020080F39A00008006520241CA10A2108BF
:100090000F39A10008006520A40924185C20241C45
:1000A000612008006520241CA20A04302202031DDE
:1000B00008000130A2000800AE0110143830A3007F
:1000C000080010107330A3000800FF30A600FF30B6
:1000D000A700A70B6928A60B672808000B110608C4
:1000E000A50000308600251E78282008C120880041
:1000F000A51F7D282108C1208800251F81282308ED
:100100008800A51E86282208C1208800251A03140D
:10011000251E0310A50C2508860008000C10FC30D5
:100120008F0018308E00AE08031DAD28200E21046C
:10013000AB00AC0001302202031DA0282B08AD004B
:10014000023022020319AD0103302202031DAA2846
:100150002B09AD000830AE00B7282F1CB3282D089E
:10016000AC00AE03B728AB0DAD0D2B08AC00AC1B3B
:10017000BB2887110716AC1FBF2887150712AF09C8
:1001800008000F3982073F3406345B344F3466343D
:100190006D347D3407347F34673477347C343934BC
:0601A0005E347934713475
:00000001FF
