:020000040000FA
:06000000C4EF01F0120044
:020006001200E6
:060008004FEF00F01200B2
:02000E000004EC
:0700100000000018FC30F8AD
:0600180016EF00F01200DB
:02001E000100DF
:0C0020000E0000008A0000000900000033
:04002C00DACFE4FF44
:10003000E2CFDAFFE652E552E5CFDAFF1100030E18
:10004000936E946ACD0EE66E87EC01F0E5520001E6
:100050008D51E96EEA6AD890E936EA368F0EE926C4
:10006000000EEA22EECFE6FFEFCFE6FFA8EC01F0AC
:10007000E552E5529E90F28CF28E81B006D00001DE
:100080008E2B8E51010801E28E6B81B206D00001E9
:100090008D2B8D51010801E28D6BEFD71200D8CF67
:1000A000E4FFE0CFE4FFE46EDACFE4FFE2CFDAFF73
:1000B000E9CFE4FFEACFE4FFF6CFE4FFF7CFE4FFB8
:1000C000F5CFE4FFF3CFE4FFF4CFE4FFFACFE4FF92
:1000D00000EE04F0020EE80403E3EECFE4FFFBD7EA
:1000E00000EE00F0040EE80403E3EECFE4FFFBD7DC
:1000F000E65200018D51E96EEA6AD890E936EA3697
:100100008F0EE926000EEA22EECFE6FFEFCFE6FFE4
:10011000A8EC01F0E552E5529E90827482A424D0AE
:1001200000018A5102E1000E01D0010EE8B0828A7E
:10013000E8A0829A8E51010A0DE0010A01E014D074
:100140008B0EE66E000EE66E38D8E552E5520001E1
:100150008A6F0AD08B0EE66E000EE66E6BD8E55203
:10016000E55200018A6F00D0E55200EE03F0040E64
:10017000E80403E3E5CFEDFFFBD700EE05F0020E48
:10018000E80403E3E5CFEDFFFBD7E5CFFAFFE5CFCA
:10019000F4FFE5CFF3FFE5CFF5FFE5CFF7FFE5CFC0
:1001A000F6FFE5CFEAFFE5CFE9FFE5CFDAFFE5505F
:1001B000E5CFE0FFE5CFD8FF1000D9CFE6FFE1CFD4
:1001C000D9FF8BC093F08CC094F093C000F094C022
:1001D00001F0D8900132003293C002F094C003F0D5
:1001E000D89003320232D890033202320050021803
:1001F0000001936F01500318946F010E9317000EC6
:1002000094178BC000F08CC001F0D89001320032FE
:100210009341026A800B036E0050021000018B6F45
:10022000015003108C6F0001935100D0E552E7CFCD
:10023000D9FF1200D9CFE6FFE1CFD9FFE6528BC03C
:10024000DFFFDF50E840E8403F0B006EDF407F0BF0
:100250000018010BDF6EDF407F0B0001D8908C335C
:100260008B33DF5000D0E552E552E7CFD9FF1200C3
:100270001E0EF66E000EF76E000EF86E00010900FD
:10028000F550856F0900F550866F03E1856701D051
:100290003DD00900F550806F0900F550816F0900CD
:1002A000F550826F09000900F550E96E0900F5501C
:1002B000EA6E090009000900F550836F0900F55046
:1002C000846F09000900F6CF87F0F7CF88F0F8CFE8
:1002D00089F080C0F6FF81C0F7FF82C0F8FF0001FF
:1002E000835302E1845307E00900F550EE6E830763
:1002F000F8E28407F9D787C0F6FF88C0F7FF89C006
:0E030000F8FF00018507000E865BBFD71200D4
:02030E00D9CF45
:10031000E6FFDACFE6FFE1CFD9FFE2CFDAFFFD0E4D
:10032000DB507E0BCD6EFD0EDBAC02D0CD8E01D04E
:10033000CD9ECF6ACE6A9E90DBAE02D09D8001D06A
:100340009D90CD80E552E5CFDAFFE7CFD9FF1200CF
:10035000D9CFE6FFDACFE6FFE1CFD9FFE2CFDAFF70
:10036000E652E652FC0EDBCFDEFFDBCFDDFF010EF7
:10037000DB50CF6EDF50CE6EE552E552E552E5CF51
:08038000DAFFE7CFD9FF1200FC
:0803880015EE00F025EE00F077
:10039000F86A059C38EC01F003EC00F01FEC00F06B
:0403A000FBD7120075
:0C03A40000EE00F00F0EEE6AEA62FDD7DA
:0203B000120039
:00000001FF
